{
  "contractName": "MyToken",
  "abi": [
    {
      "inputs": [],
      "stateMutability": "nonpayable",
      "type": "constructor"
    },
    {
      "inputs": [
        {
          "internalType": "address",
          "name": "",
          "type": "address"
        }
      ],
      "name": "balanceOf",
      "outputs": [
        {
          "internalType": "uint256",
          "name": "",
          "type": "uint256"
        }
      ],
      "stateMutability": "view",
      "type": "function",
      "constant": true
    },
    {
      "inputs": [],
      "name": "decimals",
      "outputs": [
        {
          "internalType": "uint8",
          "name": "",
          "type": "uint8"
        }
      ],
      "stateMutability": "view",
      "type": "function",
      "constant": true
    },
    {
      "inputs": [],
      "name": "name",
      "outputs": [
        {
          "internalType": "string",
          "name": "",
          "type": "string"
        }
      ],
      "stateMutability": "view",
      "type": "function",
      "constant": true
    },
    {
      "inputs": [],
      "name": "owner",
      "outputs": [
        {
          "internalType": "address",
          "name": "",
          "type": "address"
        }
      ],
      "stateMutability": "view",
      "type": "function",
      "constant": true
    },
    {
      "inputs": [],
      "name": "symbol",
      "outputs": [
        {
          "internalType": "string",
          "name": "",
          "type": "string"
        }
      ],
      "stateMutability": "view",
      "type": "function",
      "constant": true
    },
    {
      "inputs": [
        {
          "internalType": "address",
          "name": "_to",
          "type": "address"
        },
        {
          "internalType": "uint256",
          "name": "_amount",
          "type": "uint256"
        }
      ],
      "name": "mint",
      "outputs": [],
      "stateMutability": "nonpayable",
      "type": "function"
    }
  ],
  "bytecode": "0x60806040526040518060400160405280600781526020017f4d79546f6b656e000000000000000000000000000000000000000000000000008152505f908162000049919062000363565b506040518060400160405280600381526020017f4d544b00000000000000000000000000000000000000000000000000000000008152506001908162000090919062000363565b505f60025f6101000a81548160ff021916908360ff160217905550348015620000b7575f80fd5b5033600260016101000a81548173ffffffffffffffffffffffffffffffffffffffff021916908373ffffffffffffffffffffffffffffffffffffffff16021790555062000447565b5f81519050919050565b7f4e487b71000000000000000000000000000000000000000000000000000000005f52604160045260245ffd5b7f4e487b71000000000000000000000000000000000000000000000000000000005f52602260045260245ffd5b5f60028204905060018216806200017b57607f821691505b60208210810362000191576200019062000136565b5b50919050565b5f819050815f5260205f209050919050565b5f6020601f8301049050919050565b5f82821b905092915050565b5f60088302620001f57fffffffffffffffffffffffffffffffffffffffffffffffffffffffffffffffff82620001b8565b620002018683620001b8565b95508019841693508086168417925050509392505050565b5f819050919050565b5f819050919050565b5f6200024b620002456200023f8462000219565b62000222565b62000219565b9050919050565b5f819050919050565b62000266836200022b565b6200027e620002758262000252565b848454620001c4565b825550505050565b5f90565b6200029462000286565b620002a18184846200025b565b505050565b5b81811015620002c857620002bc5f826200028a565b600181019050620002a7565b5050565b601f8211156200031757620002e18162000197565b620002ec84620001a9565b81016020851015620002fc578190505b620003146200030b85620001a9565b830182620002a6565b50505b505050565b5f82821c905092915050565b5f620003395f19846008026200031c565b1980831691505092915050565b5f62000353838362000328565b9150826002028217905092915050565b6200036e82620000ff565b67ffffffffffffffff8111156200038a576200038962000109565b5b62000396825462000163565b620003a3828285620002cc565b5f60209050601f831160018114620003d9575f8415620003c4578287015190505b620003d0858262000346565b8655506200043f565b601f198416620003e98662000197565b5f5b828110156200041257848901518255600182019150602085019450602081019050620003eb565b868310156200043257848901516200042e601f89168262000328565b8355505b6001600288020188555050505b505050505050565b6106f680620004555f395ff3fe608060405234801561000f575f80fd5b5060043610610060575f3560e01c806306fdde0314610064578063313ce5671461008257806340c10f19146100a057806370a08231146100bc5780638da5cb5b146100ec57806395d89b411461010a575b5f80fd5b61006c610128565b60405161007991906103fd565b60405180910390f35b61008a6101b3565b6040516100979190610438565b60405180910390f35b6100ba60048036038101906100b591906104e2565b6101c5565b005b6100d660048036038101906100d19190610520565b6102ac565b6040516100e3919061055a565b60405180910390f35b6100f46102c1565b6040516101019190610582565b60405180910390f35b6101126102e7565b60405161011f91906103fd565b60405180910390f35b5f8054610134906105c8565b80601f0160208091040260200160405190810160405280929190818152602001828054610160906105c8565b80156101ab5780601f10610182576101008083540402835291602001916101ab565b820191905f5260205f20905b81548152906001019060200180831161018e57829003601f168201915b505050505081565b60025f9054906101000a900460ff1681565b600260019054906101000a900473ffffffffffffffffffffffffffffffffffffffff1673ffffffffffffffffffffffffffffffffffffffff163373ffffffffffffffffffffffffffffffffffffffff1614610255576040517f08c379a000000000000000000000000000000000000000000000000000000000815260040161024c90610642565b60405180910390fd5b8060035f8473ffffffffffffffffffffffffffffffffffffffff1673ffffffffffffffffffffffffffffffffffffffff1681526020019081526020015f205f8282546102a1919061068d565b925050819055505050565b6003602052805f5260405f205f915090505481565b600260019054906101000a900473ffffffffffffffffffffffffffffffffffffffff1681565b600180546102f4906105c8565b80601f0160208091040260200160405190810160405280929190818152602001828054610320906105c8565b801561036b5780601f106103425761010080835404028352916020019161036b565b820191905f5260205f20905b81548152906001019060200180831161034e57829003601f168201915b505050505081565b5f81519050919050565b5f82825260208201905092915050565b5f5b838110156103aa57808201518184015260208101905061038f565b5f8484015250505050565b5f601f19601f8301169050919050565b5f6103cf82610373565b6103d9818561037d565b93506103e981856020860161038d565b6103f2816103b5565b840191505092915050565b5f6020820190508181035f83015261041581846103c5565b905092915050565b5f60ff82169050919050565b6104328161041d565b82525050565b5f60208201905061044b5f830184610429565b92915050565b5f80fd5b5f73ffffffffffffffffffffffffffffffffffffffff82169050919050565b5f61047e82610455565b9050919050565b61048e81610474565b8114610498575f80fd5b50565b5f813590506104a981610485565b92915050565b5f819050919050565b6104c1816104af565b81146104cb575f80fd5b50565b5f813590506104dc816104b8565b92915050565b5f80604083850312156104f8576104f7610451565b5b5f6105058582860161049b565b9250506020610516858286016104ce565b9150509250929050565b5f6020828403121561053557610534610451565b5b5f6105428482850161049b565b91505092915050565b610554816104af565b82525050565b5f60208201905061056d5f83018461054b565b92915050565b61057c81610474565b82525050565b5f6020820190506105955f830184610573565b92915050565b7f4e487b71000000000000000000000000000000000000000000000000000000005f52602260045260245ffd5b5f60028204905060018216806105df57607f821691505b6020821081036105f2576105f161059b565b5b50919050565b7f4e6f7420636f6e7472616374206f776e657221000000000000000000000000005f82015250565b5f61062c60138361037d565b9150610637826105f8565b602082019050919050565b5f6020820190508181035f83015261065981610620565b9050919050565b7f4e487b71000000000000000000000000000000000000000000000000000000005f52601160045260245ffd5b5f610697826104af565b91506106a2836104af565b92508282019050808211156106ba576106b9610660565b5b9291505056fea2646970667358221220cda37cda033a4df05728cb88ab27c13ac41e191712f918986bf01f8076e001a864736f6c63430008150033",
  "immutableReferences": {},
  "source": "// contracts/MyToken.sol\n// SPDX-License-Identifier: MIT\npragma solidity ^0.8.17;\n\ncontract MyToken {\n    string public name = \"MyToken\";\n    string public symbol = \"MTK\";\n    uint8 public decimals = 0; // if you don't need fractional tokens\n    address public owner;\n\n    // Each address => token balance\n    mapping(address => uint256) public balanceOf;\n\n    constructor() {\n        owner = msg.sender; // whoever deploys the contract is owner\n    }\n\n    // Only the owner can create (mint) tokens\n    modifier onlyOwner() {\n        require(msg.sender == owner, \"Not contract owner!\");\n        _;\n    }\n\n    // Mint tokens for a given address\n    function mint(address _to, uint256 _amount) public onlyOwner {\n        balanceOf[_to] += _amount;\n    }\n}\n",
  "sourcePath": "/home/yerassyl/Desktop/sdnblockhain/sdn-blockchain/contracts/MyToken.sol",
  "compiler": {
    "name": "solc",
    "version": "0.8.21+commit.d9974bed.Emscripten.clang"
  },
  "schemaVersion": "3.4.16",
  "updatedAt": "2025-03-25T14:35:16.163Z",
  "networkType": "ethereum",
  "devdoc": {
    "kind": "dev",
    "methods": {},
    "version": 1
  },
  "userdoc": {
    "kind": "user",
    "methods": {},
    "version": 1
  }
}